2204092016000022645120400007340400000014145500  TEVES HILDA LIDIA     00002264510180100000000000073404000000000            00000
2204092016000023726320400023393300000010515133  AMIGO SUSANA YOLAND   00002372630181300000000000233933000000000            00001
2204092016000023746920400000921000000013942366  LAURENS SUSANA        00002374690009700000000000009210000000000            00002
2204092016000023937020400004932800000006AS08/13 TRAGLIA MARIA EMILI   00002393700186300000000000049328000000000            00003
2204092016000024186420400007780200000014355793  HOLT JUAN CARLOS      00002418640454900000000000077802000000000            00004
2204092016000024231220400007695600000010818312  NARDI MARIA LUJAN     00002423120176500000000000076956000000000            00005
2204092016000024826820400006677600000012AG01/14 NUEZ SONIA EDITH      00002482680990000000000000066776000000000            00006
22040920160000252130204000065889000000122602/14 BUSTOS JAVIER EDMUND  00002521300540200000000000065889000000000            00007
22040920160000252130211000054907000000122602/14 BUSTOS JAVIER EDMUND  00002521300540200000000000054907000000000            00008
2204092016000025530820400006161000000011895907  MEDINA ALICIA MABEL   00002553080175500000000000061610000000000            00009
2204092016000025692320400005879700000013818781  GOMEZ ROSA DEL CARM   00002569230181100000000000058797000000000            00010
2204092016000025727720400007011300000014819351  MEGIAS MARIA CRISTI   00002572770179000000000000070113000000000            00011
2204092016000025887120400007797100000012444619  HORST OLGA RAQUEL     00002588710479000000000000077971000000000            00012
2204092016000025948020400007881700000017405668  GARCIA ANA GREGORIA   00002594800170000000000000078817000000000            00013
2204092016000026255120400007289600000016413254  SCORTEGAGNA CARMEN    00002625510454900000000000072896000000000            00014
2204092016000026288020400007492600000017086806  RIVERO RAMONA ITATI   00002628800181800000000000074926000000000            00015
2204092016000026313720400007492600000017010483  GORDALIZA RUBEN FAB   00002631370181800000000000074926000000000            00016
2204092016000026324820400005105500000013263379  SEGOVIA VILMA INES    00002632480200800000000000051055000000000            00017
2204092016000026414420400007492600000017585535  RASGIDO ELSA SUSANA   00002641440181800000000000074926000000000            00018
2204092016000026521920400007289600000013329807  TORRES IRMA ESTER     00002652190456900000000000072896000000000            00019
2204092016000026534820400007543400000010097612  MACHADO ALICIA ODEL   00002653480456900000000000075434000000000            00020
2204092016000026603020400006698400000012268340  VERA RICARDO ALBERT   00002660300454900000000000066984000000000            00021
2204092016000026627920400006117200000012AG04/13 ROLDAN ANSELMO ISMA   00002662790175500000000000061172000000000            00022
2204092016000026628420400007047900000012AG02/14 VAZQUEZ MIGUEL ANGE   00002662840454900000000000070479000000000            00023
2204092016000026670020400006073400000006AS08/13 MARTINEZ SILVERIA     00002667000454900000000000060734000000000            00024
2204092016000026718120400006934400000012AG10/13 VILLALBA GLADYS HAY   00002671810170000000000000069344000000000            00025
2204092016000026921520400006680600000018204700  DI GERONIMO MIRTA     00002692150351500000000000066806000000000            00026
22040920160000272070204000060734000000122402/14 ROMERO ROSA MARIA     00002720700180900000000000060734000000000            00027
22040920160000274337204000077464000000122402/14 TEJEDOR STELLA MARI   00002743370174400000000000077464000000000            00028
22040920160000274414204000076449000000122402/14 KRIWOSZEJA NOEMI AL   00002744140181800000000000076449000000000            00029
22040920160000275424204000066299000000012303/13 RODRIGUEZ ROSANA MA   00002754240179100000000000066299000000000            00030
22040920160000275442204000060296000000019103/13 BIEDMA IRMA CLARA     00002754420456900000000000060296000000000            00031
22040920160000275539204000060319000000185708/14 DIAZ AZUCENA ESTHER   00002755390180700000000000060319000000000            00032
22040920160000275634204000062486000000122402/14 MOREIRA BLANCA ISAB   00002756340181800000000000062486000000000            00033
2204092016000027639420400006029600000012074197  CORVALAN ROSA HAYDE   00002763940181300000000000060296000000000            00034
22040920160000276605204000066000000000157005/14 MALDONADO PEDRO ELI   00002766050454900000000000066000000000000            00035
2204092016000027711020400006501600000011628303  RODRIGUEZ GRACIELA    00002771100177500000000000065016000000000            00036
22040920160000277171204000075434000000012803/13 PACHECO ANGELA VIVI   00002771710479000000000000075434000000000            00037
2204092016000027717520400006555200000006AS08/13 URCOLA ANA MARIA      00002771750479000000000000065552000000000            00038
22040920160000277739204000065016000000127004/13 FERRARI ROSA AZUCEN   00002777390176500000000000065016000000000            00039
2204092016000027955720400007492600000012AG03/13 CARDOZO ESTER DEL C   00002795570479000000000000074926000000000            00040
2204092016000028016620400006765300000016163689  MORANTE CARLOS CRIS   00002801660177500000000000067653000000000            00041
2204092016000028171820400006534500000018217565  ROMANO SILVIA SUSAN   00002817180176500000000000065345000000000            00042
2204092016000028195020400006330900000010764006  MORA JOSE ALBERTO     00002819500990500000000000063309000000000            00043
22040920160000283301204000064523000000122402/14 GONZALEZ MONICA BEAT  00002833010173800000000000064523000000000            00044
2204092016000028344020400006452300000012180761  SAYAGO SUSANA BEATR   00002834400181200000000000064523000000000            00045
2204092016000028453020400006680800000017778477  TORRES ADRIANA MARC   00002845300179000000000000066808000000000            00046
2204092016000028639920400006600000000018459067  TROTTA MARIA ALEJAND  00002863990852700000000000066000000000000            00047
2204092016000028642320400007289600000012AG11/13 COLAUTI PATRICIA      00002864230179000000000000072896000000000            00048
2204092016000028713120400005942000000006AS08/13 GEYMONAT DAVID ENRI   00002871310179500000000000059420000000000            00049
2204092016000028784320400006403100000020684503  MARISCAL ELSA BEATR   00002878430181100000000000064031000000000            00050
2204092016000028999120400007289600000012AG08/13 VARGAS MARIA ALEJAN   00002899910175300000000000072896000000000            00051
22040920160000290641204000058982000000247002/15 VILLAMAGNA ALICIA R   00002906410173700000000000058982000000000            00052
22040920160000290903204000069851000000012403/13 GORONDONA SILVIA BEA  00002909030454900000000000069851000000000            00053
22040920160000294623204000071881000000122402/14 CABRERA LILIANA MAB   00002946230171400000000000071881000000000            00054
2204092016000029713220400006883600000012AG01/14 ROMAN LORENZO         00002971320170900000000000068836000000000            00055
2204092016000029724520400006883600000012AG12/13 AYALA MARIA ISABEL    00002972450170900000000000068836000000000            00056
2204092016000029828620400007188100000020967135  GUERRA HECTOR RUBEN   00002982860181000000000000071881000000000            00057
22040920160000302156204000058467000000100612/13 SANTINI CARLOS ALBE   00003021560181000000000000058467000000000            00058
2204092016000030258920400005766900000021699706  BRAVO GRACIELA MABE   00003025890181100000000000057669000000000            00059
22040920160000302786204000064676000000247002/15 DUARTE NANCI NOEMI    00003027860176000000000000064676000000000            00060
2204092016000030297320400007137400000010913605  GAMALERI MARIA ROSA   00003029730176000000000000071374000000000            00061
22040920160000303250204000062486000000202210/14 PEREIRA CARINA NORA   00003032500179000000000000062486000000000            00062
2204092016000030429820400006204800000014774972  HAIM GRACIELA BEATR   00003042980170900000000000062048000000000            00063
2204092016000030449720400005558900000016519233  ORELLANA JORGE JESU   00003044970411900000000000055589000000000            00064
2204092016000030454520400005517800000016487881  GARCIA MIRIAM ELISA   00003045450174600000000000055178000000000            00065
2204092016000030534020400005558900000012AG12/13 DOBLER MARIA YOLAND   00003053400174600000000000055589000000000            00066
22040920160000305537204000071374000000247009/13 MORALES STELLA MARI   00003055370172900000000000071374000000000            00067
2204092016000030610420400007438500000016560535  PRIETO MARIANA GUIL   00003061040181700000000000074385000000000            00068
2204092016000030634520400006204800000017896430  CHIRINO PATRICIA GR   00003063450179000000000000062048000000000            00069
2204092016000030639320400005558900000006AS08/13 TISCHELER MIRTA SUS   00003063930179000000000000055589000000000            00070
22040920160000306988204000064238000000125502/14 OSORIO MARIA ROSA     00003069880174600000000000064238000000000            00071
2204092016000030700520400006642800000016803695  LANGUILLA RICARDO L   00003070050174400000000000066428000000000            00072
22040920160000307030204000055589000000122402/14 REQUENA MARTA CLAUD   00003070300170900000000000055589000000000            00073
2204092016000031359720400006087200000011305896  ACEVEDO MARIA L       00003135970174600000000000060872000000000            00074
2204092016000031368520400005411600000025718351  MENDEZ ESQUIVEL KAR   00003136850177500000000000054116000000000            00075
2204092016000031371320400006087200000018455993  CAMPOS MARIA DE LOS   00003137130181000000000000060872000000000            00076
2204092016000031401620400005879700000020844265  HAEDO VERONICA ALEJ   00003140160173800000000000058797000000000            00077
2204092016000031407720400006087200000012857741  MINERVINO MAGDALENA   00003140770174400000000000060872000000000            00078
22040920160000314284204000060872000000122202/14 DUARTE LILIANA E      00003142840176200000000000060872000000000            00079
2204092016000031564120400005879700000012AG03/13 QUIROGA ADRIANA M     00003156410176500000000000058797000000000            00080
22040920160000315678204000059627000000122402/14 GARCIA Y MIRANA ALE   00003156780789900000000000059627000000000            00081
2204092016000031725520400006294800000012251776  VILLEGAS ANA Y        00003172550181800000000000062948000000000            00082
22040920160000317265204000062948000000122402/14 CASTILLO DANIEL A     00003172650181800000000000062948000000000            00083
2204092016000031728620400006294800000012083944  MORENO LILIAN BEATR   00003172860181800000000000062948000000000            00084
2204092016000031801520400005617700000024053442  HERRERA FABIANA EST   00003180150179000000000000056177000000000            00085
2204092016000031832220400005846700000013458898  BALCEDA SILVIA ANGE   00003183220179000000000000058467000000000            00086
2204092016000032046220400005615600000006AS08/13 GUTIERREZ VICTOR EN   00003204620180100000000000056156000000000            00087
2204092016000032401820400006087200000013967111  FIGUEROA GLADYS EST   00003240180456900000000000060872000000000            00088
320409201600003241742070000000000000004516499   GIOVINE MARIO ALBER CR00003241740000000000000000000000000000000            00089
2204092016000032422820400005874500000018340192  GUEVARA MARIA FERNA   00003242280180700000000000058745000000000            00090
22040920160000324904204000059212000000122202/14 NEGRETTE TOMASA LIL   00003249040456900000000000059212000000000            00091
2204092016000032620920400005435500000017657773  RODRIGUEZ MONICA AN   00003262090789900000000000054355000000000            00092
22040920160000326267204000060872000000122602/14 ZUCCA ALICIA NOEMI    00003262670456900000000000060872000000000            00093
2204092016000032650720400005411600000012AG05/13 SAUCO JULIO CESAR     00003265070175500000000000054116000000000            00094
2204092016000032658820400005398000000021555111  SEGURA ADRIANA MABE   00003265880181200000000000053980000000000            00095
2204092016000032661120400005411600000016959993  DIAZDE BEDOYA VICT    00003266110454900000000000054116000000000            00096
2204092016000032693020400005879700000013754884  GHIANO WALTER RENE    00003269300179000000000000058797000000000            00097
2204092016000032800620400006059500000011029225  PALACIO FRANCISCO     00003280060181600000000000060595000000000            00098
2204092016000033054020400005384400000006AS08/13 ASAD LEONARDO URIEL   00003305400179000000000000053844000000000            00099
2204092016000033075020400006117200000010608273  CANALINI STELLA MA    00003307500454700000000000061172000000000            00100
2204092016000033119720400005642800000006AS08/13 MUOZ ALICIA BEATRI    00003311970180700000000000056428000000000            00101
2204092016000033124020400005879700000012AG04/13 CORAGLIO ROXANA LOR   00003312400176500000000000058797000000000            00102
22040920160000331454204000056156000000010103/13 LUDUEA CLAUDIA ALE    00003314540180700000000000056156000000000            00103
22040920160000331620204000062809000000010103/13 ROLDAN ROSA ISABEL    00003316200180700000000000062809000000000            00104
2204092016000033174320400005641100000023739933  SIVILOTTI VALERIA     00003317430180700000000000056411000000000            00105
22040920160000331964204000062809000000122602/14 BEYER LILIANA BEATR   00003319640181800000000000062809000000000            00106
2204092016000033199820400005893500000025099796  LUGO VIVIANA          00003319980180900000000000058935000000000            00107
2204092016000033314120400006532700000016800364  SARDINEZ CARLOS HUGO  00003331410180700000000000065327000000000            00108
2204092016000033386920400005997500000014166601  CATTANEO OSVALDO AN   00003338690174600000000000059975000000000            00109
2204092016000033400620400005852000000012AG02/14 CROGNALE ESTELA NOE   00003340060456900000000000058520000000000            00110
2204092016000033401420400005435500000012AG03/13 CHAILES MARTA ELENA   00003340140180900000000000054355000000000            00111
22040920160000334183204000060296000000012303/13 LAMADRID GLADYS       00003341830454700000000000060296000000000            00112
2204092016000033426520400007086600000013172414  MIO HAYDEE TERESA     00003342650454700000000000070866000000000            00113
2204092016000033429920400006073400000012AG07/13 OCAMPO SILVIA MARIE   00003342990173800000000000060734000000000            00114
22040920160000334312204000054355000000247003/13 PAIS ARIEL ALEJANDR   00003343120173200000000000054355000000000            00115
22040920160000334443204000072050000000247002/15 SARACHO MARTA SUSAN   00003344430179900000000000072050000000000            00116
2204092016000033831620400005997500000027146403  CHAVEZ ALEJANDRA BE   00003383160180900000000000059975000000000            00117
2204092016000033859920400005751600000012AG04/13 TRABA MARIA ALEJANDR  00003385990174600000000000057516000000000            00118
2204092016000033875520400005751600000012AG03/13 BARBOZA HILDA GRACIE  00003387550179000000000000057516000000000            00119
2204092016000034085020400006231300000021602587  REY LELIA AMELIA      00003408500411900000000000062313000000000            00120
2204092016000034695620400005738000000012AG01/14 PALAVECINO IRMA LIDI  00003469560170200000000000057380000000000            00121
2204092016000034699720400005942000000012AG10/13 PEDROZO DELIA BEATRI  00003469970170200000000000059420000000000            00122
2204092016000034714620400006294800000012AG09/13 GONZALEZ NORMA        00003471460170200000000000062948000000000            00123
2204092016000034719620400005511300000025016142  LASERNA ANDREA BEATR  00003471960177500000000000055113000000000            00124
2204092016000034722120400006064400000030142838  GAUNA MIRIAM PAOLA    00003472210180900000000000060644000000000            00125
2204092016000034727420400005778800000011167596  ALTEO HILDA MABEL     00003472740170200000000000057788000000000            00126
2204092016000034799820400007543400000013648555  DIAZ GRISELDA         00003479980170200000000000075434000000000            00127
22040920160000348009204000050716000000999904/21 IRIARTE LUIS          00003480090170200000000000050716000000000            00128
2204092016000034802920400005641100000012AG09/13 SANCHEZ MONICA ELIZA  00003480290170200000000000056411000000000            00129
2204092016000035025120400005965700000017580875  GUERRERO PATRICIA CA  00003502510852700000000000059657000000000            00130
2204092016000035045320400005311800000027192568  VIQUE NOEMI ESTER     00003504530170200000000000053118000000000            00131
22040920160000350733204000060523000000157008/13 RODRIGUEZ HILDA       00003507330170200000000000060523000000000            00132
2204092016000035075520400005914000000012AG04/13 VAZQUEZ SILVIA INES   00003507550789900000000000059140000000000            00133
2204092016000035086320400006828500000011647577  RUESCAS STELLA MARIS  00003508630170200000000000068285000000000            00134
2204092016000035130720400006419300000012AG12/13 RUIZ JOSEFINA DEL CA  00003513070170200000000000064193000000000            00135
2204092016000035132320400005384400000026906566  DINOCCO JUAN CARLOS   00003513230180900000000000053844000000000            00136
2204092016000035150020400005913300000012AG12/13 MORE SANDRA PATRICIA  00003515000180900000000000059133000000000            00137
2204092016000035150920400005311800000017774090  PAREDES MABEL         00003515090180800000000000053118000000000            00138
2204092016000035433920400006064400000013786371  ACUA NANCY LILIAN     00003543390180900000000000060644000000000            00139
2204092016000035538420400005644100000012AG09/13 QUIROGA LIDIA ELIZAB  00003553840179000000000000056441000000000            00140
2204092016000035586520400005644100000020430433  HERRERA SILVIA MARIE  00003558650179000000000000056441000000000            00141
2204092016000035630220400005390900000006AS08/13 ORTEGA GUSTAVO ALFRE  00003563020454900000000000053909000000000            00142
2204092016000035632820400005791900000012AG08/13 FUNES NORMA ROMELIA   00003563280180900000000000057919000000000            00143
2204092016000035732720400005644100000025134056  BUSTOS VIVIANA CECIL  00003573270173800000000000056441000000000            00144
2204092016000035944520400006211700000018041432  SEDANO MARISA SUSANA  00003594450180700000000000062117000000000            00145
2204092016000036299520400005446300000012AG01/14 MENDOZA MIRIAM MARIE  00003629950179000000000000054463000000000            00146
22040920160000664793204000056721000000122402/14 OSORES MONICA DEL VA  00006647930170200000000000056721000000000            00147
2204092016000066483020400005071600000012AG10/13 ROSALES BLANCA MARGA  00006648300170200000000000050716000000000            00148
2204092016000066487220400006211700000014090270  OLMEDO CATALINA OLGA  00006648720170200000000000062117000000000            00149
2204092016000066493120400006680100000012AG03/13 BAICER FERNANDO SIMO  00006649310170200000000000066801000000000            00150
2204092016000066504820400005901200000012AG09/13 RODRIGUEZ MARIA ROSA  00006650480170200000000000059012000000000            00151
22040920160000665073204000059858000000127702/14 ROBLES ENRIQUE        00006650730170200000000000059858000000000            00152
2204092016000066508220400005738000000018278827  CUENCA NORMA BEATRIZ  00006650820170200000000000057380000000000            00153
22040920160000665164204000066328000000246006/13 FLOREZ ALICIA BEATRI  00006651640170200000000000066328000000000            00154
22040920160000665166204000056156000000247009/14 MANSILLA GUSTAVO GAB  00006651660170200000000000056156000000000            00155
2204092016000066841420400005860400000006AS08/13 D AMURI MARIA CRISTI  00006684140180900000000000058604000000000            00156
22040920160000668416204000051124000000993905/21 MARTINEZ PATRICIA ME  00006684160180900000000000051124000000000            00157
2204092016000066883020400005471400000018458479  GARCIA ALICIA ISABEL  00006688300181000000000000054714000000000            00158
2204092016000066996420400005841900000021466022  OLEA MIRIAM ALEJANDR  00006699640180200000000000058419000000000            00159
2204092016000067069020400005050600000023169999  SOSA MARIANA FLORENC  00006706900790000000000000050506000000000            00160
2204092016000067153720400005644100000013554139  SANDOVAL ANA MARIA    00006715370170000000000000056441000000000            00161
2204092016000067155420400005820100000028740589  BOSCO MYRIAM          00006715540181000000000000058201000000000            00162
2204092016000067207620400005565000000012AG06/13 NUEZ MARIA DEL CARM   00006720760179000000000000055650000000000            00163
2204092016000067298720400005011000000025055621  ARANDA IRENEO ARIEL   00006729870180900000000000050110000000000            00164
3204092016000067306020700000000000000025567070  LEIVA GUSTAVO PATRICCR00006730600000000000000000000000000000000            00165
2204092016000067308720400005644100000016326932  FERREYRA ROSA AMALIA  00006730870180200000000000056441000000000            00166
2204092016000067318720400005050600000023541759  PALOMO MIRTA MABEL    00006731870181200000000000050506000000000            00167
22040920160000673461204000049048000000122402/14 LAZARTE JUAN ANTONIO  00006734610170200000000000049048000000000            00168
2204092016000067513520400005332200000021892895  BROCATO CATALINA MAR  00006751350852700000000000053322000000000            00169
22040920160000676241204000053118000000127702/14 MOYANO MARCELINA      00006762410180800000000000053118000000000            00170
22040920160000676888204000050584000000122602/14 AGUILERA ZULMA EMILC  00006768880456900000000000050584000000000            00171
22040920160000676888211000042154000000122602/14 AGUILERA ZULMA EMILC  00006768880456900000000000042154000000000            00172
22040920160000914994204000056156000000122210/13 GARIN CAROLINA EDIT   00009149940180700000000000056156000000000            00173
220409201600001791962040000000000000005312090   ARMENGOL ELSA MARTA NN00001791960000000000000000000000000000000            00174
2204092016000019514120400000000000000010613773  ROSSI FERRARI MARIA NN00001951410000000000000000000000000000000            00175
2204092016000021113520400000000000000011789208  NUNZIO MARIA FEDORA AA00002111350000000000000000000000000000000            00176
2204092016000024043320400000000000000010530104  SOTO JUAN JOSE      NN00002404330000000000000000000000000000000            00177
2204092016000024135520400000000000000013581224  PALUMBO MARIA VICTO AA00002413550000000000000000000000000000000            00178
2204092016000024784930400000000000000013909320  PIAGGIO MARIA LUISA AA00002478490000000000000000000000000000000            00179
2204092016000024851620400000000000000014464725  GUTIERREZ MARIA DEL NN00002485160000000000000000000000000000000            00180
2204092016000025465930400000000000000016123925  CARRIZO SILVIA SUSA AA00002546590000000000000000000000000000000            00181
2204092016000026358620400000000000000014801953  CURAS ADRIANA NOEMI AA00002635860000000000000000000000000000000            00182
220409201600002687663040000000000000006356734   HEREDIA AZUCENA EST NN00002687660000000000000000000000000000000            00183
2204092016000027541920400000000000000017006987  MORANDI MONICA GABR NN00002754190000000000000000000000000000000            00184
2204092016000027655520400000000000000013776382  TEDESCO RUBEN DARIO NN00002765550000000000000000000000000000000            00185
2204092016000027849220400000000000000011336869  SALTO ZUNILDA DEL V AA00002784920000000000000000000000000000000            00186
2204092016000027947420400000000000000012605278  CARPI MARTA         NN00002794740000000000000000000000000000000            00187
2204092016000027966220400000000000000011626169  RAMIREZ ALICIA MABE NN00002796620000000000000000000000000000000            00188
2204092016000027974320400000000000000013629228  MONDACA NILO JORGE  NN00002797430000000000000000000000000000000            00189
2204092016000028159420400000000000000012345001  MARTIN MONICA RAQUE AA00002815940000000000000000000000000000000            00190
2204092016000028544820400000000000000017399855  MENDEZ MARIA ROSA   NN00002854480000000000000000000000000000000            00191
220409201600002854542040000000000000005222837   RAMSING NESTOR AUGU NN00002854540000000000000000000000000000000            00192
220409201600002863663040000166080000006189226   POITEVIN JUAN RAMON NN00002863660000000000000000000000000016608            00193
2204092016000028658820400000000000000017172704  DELRE BEATRIZ FILOM AA00002865880000000000000000000000000000000            00194
2204092016000028729030400000000000000017486101  DURE MIGUEL ANGEL   NN00002872900000000000000000000000000000000            00195
2204092016000028762620400000000000000014748698  ARCURI MARTA ELISAB AA00002876260000000000000000000000000000000            00196
2204092016000028813620400000000000000013900010  RODRIGUEZ ELBA ALIC AA00002881360000000000000000000000000000000            00197
2204092016000029001320400000000000000013091214  JARA OFELIA G       NN00002900130000000000000000000000000000000            00198
2204092016000029372020400000000000000011180262  SOSA ANA ELISA      AA00002937200000000000000000000000000000000            00199
2204092016000029372020400000000000000011180262  SOSA ANA ELISA      NN00002937200000000000000000000000000000000            00200
2204092016000029454520400000000000000012101868  ROJAS TERESA ANTONI NN00002945450000000000000000000000000000000            00201
2204092016000029458220400000000000000012836146  SUAREZ MIRIAM RAQUE NN00002945820000000000000000000000000000000            00202
2204092016000029602320400000000000000014845035  CARPENTIERI MIRTA ISAA00002960230000000000000000000000000000000            00203
2204092016000030338230400000000000000016479309  SALAS ROSARIO VILMA AA00003033820000000000000000000000000000000            00204
2204092016000030338230400000000000000016479309  SALAS ROSARIO VILMA NN00003033820000000000000000000000000000000            00205
2204092016000030529320400000000000000014285218  ZUCARO ROBERTO      AA00003052930000000000000000000000000000000            00206
2204092016000030529321100000000000000014285218  ZUCARO ROBERTO      AA00003052930000000000000000000000000000000            00207
2204092016000030529330400002519800000014285218  ZUCARO ROBERTO      AA00003052930000000000000000000000000025198            00208
2204092016000030581720400000000000000012096522  ARGENTO JORGE ANTON NN00003058170000000000000000000000000000000            00209
2204092016000031591520400000000000000013444405  QUIROGA MONICA LILI NN00003159150000000000000000000000000000000            00210
2204092016000032128720400000000000000017449777  SUAREZ CLAUDIA RAMO NN00003212870000000000000000000000000000000            00211
2204092016000032373920400000000000000020062955  CHAVEZ VICTOR EMILIOAA00003237390000000000000000000000000000000            00212
2204092016000032490430400000000000000013900011  NEGRETTE TOMASA LIL AA00003249040000000000000000000000000000000            00213
2204092016000033123320400000000000000020909561  CASAL ROSA GRACIEL  AA00003312330000000000000000000000000000000            00214
2204092016000033390220400000000000000025631947  AZZARITTI JUAN CARL NN00003339020000000000000000000000000000000            00215
2204092016000033609520400000000000000014269136  IBARRA SANDRA ROSA  AA00003360950000000000000000000000000000000            00216
2204092016000033906820400000000000000023845940  DECIMA KARINA PATRICNN00003390680000000000000000000000000000000            00217
2204092016000035141520400000000000000012302366  QUIROZ RAIMUNDA ARGENN00003514150000000000000000000000000000000            00218
2204092016000035616620400000000000000017478945  CARMELE MONICA BEATRNN00003561660000000000000000000000000000000            00219
2204092016000035651920400000000000000030057891  ROBLEDO ALICIA BEATRNN00003565190000000000000000000000000000000            00220
2204092016000035683920400000000000000028164422  VACAFLOR MARIELA BEANN00003568390000000000000000000000000000000            00221
2204092016000035955020400000000000000024936887  LARRIEUR MARIA DE LOAA00003595500000000000000000000000000000000            00222
2204092016000067025420400000000000000027757423  DUARTE MARIA SOLEDADNN00006702540000000000000000000000000000000            00223
2204092016000067213520400000000000000012583965  BARTOLOME SILVIA HAYAA00006721350000000000000000000000000000000            00224
2204092016000067537320400000000000000021915113  NAVARRO ALDO JORGE  AA00006753730000000000000000000000000000000            00225
